{
  "address": "0x068bEF92987D16eF682FF017B822CA1211401EaF",
  "abi": [
    {
      "anonymous": false,
      "inputs": [
        {
          "indexed": true,
          "internalType": "address",
          "name": "owner",
          "type": "address"
        },
        {
          "indexed": true,
          "internalType": "address",
          "name": "approved",
          "type": "address"
        },
        {
          "indexed": true,
          "internalType": "uint256",
          "name": "tokenId",
          "type": "uint256"
        }
      ],
      "name": "Approval",
      "type": "event"
    },
    {
      "anonymous": false,
      "inputs": [
        {
          "indexed": true,
          "internalType": "address",
          "name": "owner",
          "type": "address"
        },
        {
          "indexed": true,
          "internalType": "address",
          "name": "operator",
          "type": "address"
        },
        {
          "indexed": false,
          "internalType": "bool",
          "name": "approved",
          "type": "bool"
        }
      ],
      "name": "ApprovalForAll",
      "type": "event"
    },
    {
      "anonymous": false,
      "inputs": [
        {
          "indexed": false,
          "internalType": "address",
          "name": "msgSender",
          "type": "address"
        },
        {
          "indexed": false,
          "internalType": "uint256",
          "name": "tokenId",
          "type": "uint256"
        },
        {
          "indexed": false,
          "internalType": "string",
          "name": "lockedContent",
          "type": "string"
        }
      ],
      "name": "LockedContentViewed",
      "type": "event"
    },
    {
      "anonymous": false,
      "inputs": [
        {
          "indexed": false,
          "internalType": "address",
          "name": "feeChanger",
          "type": "address"
        },
        {
          "indexed": false,
          "internalType": "uint256",
          "name": "newValue",
          "type": "uint256"
        }
      ],
      "name": "MintFeesUpdated",
      "type": "event"
    },
    {
      "anonymous": false,
      "inputs": [
        {
          "indexed": false,
          "internalType": "address",
          "name": "feeWithdrawer",
          "type": "address"
        },
        {
          "indexed": false,
          "internalType": "uint256",
          "name": "withdrawAmount",
          "type": "uint256"
        }
      ],
      "name": "MintFeesWithdrawn",
      "type": "event"
    },
    {
      "anonymous": false,
      "inputs": [
        {
          "indexed": false,
          "internalType": "address",
          "name": "toAddress",
          "type": "address"
        },
        {
          "indexed": false,
          "internalType": "uint256",
          "name": "tokenId",
          "type": "uint256"
        },
        {
          "indexed": false,
          "internalType": "string",
          "name": "externalURI",
          "type": "string"
        }
      ],
      "name": "Minted",
      "type": "event"
    },
    {
      "anonymous": false,
      "inputs": [
        {
          "indexed": true,
          "internalType": "address",
          "name": "previousOwner",
          "type": "address"
        },
        {
          "indexed": true,
          "internalType": "address",
          "name": "newOwner",
          "type": "address"
        }
      ],
      "name": "OwnershipTransferred",
      "type": "event"
    },
    {
      "anonymous": false,
      "inputs": [
        {
          "indexed": false,
          "internalType": "address",
          "name": "account",
          "type": "address"
        }
      ],
      "name": "Paused",
      "type": "event"
    },
    {
      "anonymous": false,
      "inputs": [
        {
          "indexed": true,
          "internalType": "bytes32",
          "name": "role",
          "type": "bytes32"
        },
        {
          "indexed": true,
          "internalType": "bytes32",
          "name": "previousAdminRole",
          "type": "bytes32"
        },
        {
          "indexed": true,
          "internalType": "bytes32",
          "name": "newAdminRole",
          "type": "bytes32"
        }
      ],
      "name": "RoleAdminChanged",
      "type": "event"
    },
    {
      "anonymous": false,
      "inputs": [
        {
          "indexed": true,
          "internalType": "bytes32",
          "name": "role",
          "type": "bytes32"
        },
        {
          "indexed": true,
          "internalType": "address",
          "name": "account",
          "type": "address"
        },
        {
          "indexed": true,
          "internalType": "address",
          "name": "sender",
          "type": "address"
        }
      ],
      "name": "RoleGranted",
      "type": "event"
    },
    {
      "anonymous": false,
      "inputs": [
        {
          "indexed": true,
          "internalType": "bytes32",
          "name": "role",
          "type": "bytes32"
        },
        {
          "indexed": true,
          "internalType": "address",
          "name": "account",
          "type": "address"
        },
        {
          "indexed": true,
          "internalType": "address",
          "name": "sender",
          "type": "address"
        }
      ],
      "name": "RoleRevoked",
      "type": "event"
    },
    {
      "anonymous": false,
      "inputs": [
        {
          "indexed": true,
          "internalType": "address",
          "name": "from",
          "type": "address"
        },
        {
          "indexed": true,
          "internalType": "address",
          "name": "to",
          "type": "address"
        },
        {
          "indexed": true,
          "internalType": "uint256",
          "name": "tokenId",
          "type": "uint256"
        }
      ],
      "name": "Transfer",
      "type": "event"
    },
    {
      "anonymous": false,
      "inputs": [
        {
          "indexed": false,
          "internalType": "address",
          "name": "account",
          "type": "address"
        }
      ],
      "name": "Unpaused",
      "type": "event"
    },
    {
      "inputs": [],
      "name": "DEFAULT_ADMIN_ROLE",
      "outputs": [
        {
          "internalType": "bytes32",
          "name": "",
          "type": "bytes32"
        }
      ],
      "stateMutability": "view",
      "type": "function"
    },
    {
      "inputs": [],
      "name": "MINTER_ROLE",
      "outputs": [
        {
          "internalType": "bytes32",
          "name": "",
          "type": "bytes32"
        }
      ],
      "stateMutability": "view",
      "type": "function"
    },
    {
      "inputs": [],
      "name": "PAUSER_ROLE",
      "outputs": [
        {
          "internalType": "bytes32",
          "name": "",
          "type": "bytes32"
        }
      ],
      "stateMutability": "view",
      "type": "function"
    },
    {
      "inputs": [],
      "name": "POLYNETWORK_ROLE",
      "outputs": [
        {
          "internalType": "bytes32",
          "name": "",
          "type": "bytes32"
        }
      ],
      "stateMutability": "view",
      "type": "function"
    },
    {
      "inputs": [
        {
          "internalType": "address",
          "name": "to",
          "type": "address"
        },
        {
          "internalType": "uint256",
          "name": "tokenId",
          "type": "uint256"
        }
      ],
      "name": "approve",
      "outputs": [],
      "stateMutability": "nonpayable",
      "type": "function"
    },
    {
      "inputs": [
        {
          "internalType": "address",
          "name": "owner",
          "type": "address"
        }
      ],
      "name": "balanceOf",
      "outputs": [
        {
          "internalType": "uint256",
          "name": "",
          "type": "uint256"
        }
      ],
      "stateMutability": "view",
      "type": "function"
    },
    {
      "inputs": [
        {
          "internalType": "uint256",
          "name": "tokenId",
          "type": "uint256"
        }
      ],
      "name": "burn",
      "outputs": [],
      "stateMutability": "nonpayable",
      "type": "function"
    },
    {
      "inputs": [
        {
          "internalType": "uint256[]",
          "name": "tokensId",
          "type": "uint256[]"
        }
      ],
      "name": "burnBatch",
      "outputs": [],
      "stateMutability": "nonpayable",
      "type": "function"
    },
    {
      "inputs": [
        {
          "internalType": "uint256",
          "name": "tokenId",
          "type": "uint256"
        }
      ],
      "name": "getApproved",
      "outputs": [
        {
          "internalType": "address",
          "name": "",
          "type": "address"
        }
      ],
      "stateMutability": "view",
      "type": "function"
    },
    {
      "inputs": [],
      "name": "getCurrentCounter",
      "outputs": [
        {
          "internalType": "uint256",
          "name": "",
          "type": "uint256"
        }
      ],
      "stateMutability": "view",
      "type": "function"
    },
    {
      "inputs": [
        {
          "internalType": "uint256",
          "name": "tokenId",
          "type": "uint256"
        }
      ],
      "name": "getCurrentLockedContentViewTracker",
      "outputs": [
        {
          "internalType": "uint256",
          "name": "",
          "type": "uint256"
        }
      ],
      "stateMutability": "view",
      "type": "function"
    },
    {
      "inputs": [],
      "name": "getGhostmarketMintFees",
      "outputs": [
        {
          "internalType": "uint256",
          "name": "",
          "type": "uint256"
        }
      ],
      "stateMutability": "view",
      "type": "function"
    },
    {
      "inputs": [],
      "name": "getLastTokenID",
      "outputs": [
        {
          "internalType": "uint256",
          "name": "",
          "type": "uint256"
        }
      ],
      "stateMutability": "view",
      "type": "function"
    },
    {
      "inputs": [
        {
          "internalType": "uint256",
          "name": "tokenId",
          "type": "uint256"
        }
      ],
      "name": "getLockedContent",
      "outputs": [],
      "stateMutability": "nonpayable",
      "type": "function"
    },
    {
      "inputs": [
        {
          "internalType": "uint256",
          "name": "tokenId",
          "type": "uint256"
        }
      ],
      "name": "getMetadataJson",
      "outputs": [
        {
          "internalType": "string",
          "name": "",
          "type": "string"
        }
      ],
      "stateMutability": "view",
      "type": "function"
    },
    {
      "inputs": [
        {
          "internalType": "bytes32",
          "name": "role",
          "type": "bytes32"
        }
      ],
      "name": "getRoleAdmin",
      "outputs": [
        {
          "internalType": "bytes32",
          "name": "",
          "type": "bytes32"
        }
      ],
      "stateMutability": "view",
      "type": "function"
    },
    {
      "inputs": [
        {
          "internalType": "bytes32",
          "name": "role",
          "type": "bytes32"
        },
        {
          "internalType": "uint256",
          "name": "index",
          "type": "uint256"
        }
      ],
      "name": "getRoleMember",
      "outputs": [
        {
          "internalType": "address",
          "name": "",
          "type": "address"
        }
      ],
      "stateMutability": "view",
      "type": "function"
    },
    {
      "inputs": [
        {
          "internalType": "bytes32",
          "name": "role",
          "type": "bytes32"
        }
      ],
      "name": "getRoleMemberCount",
      "outputs": [
        {
          "internalType": "uint256",
          "name": "",
          "type": "uint256"
        }
      ],
      "stateMutability": "view",
      "type": "function"
    },
    {
      "inputs": [
        {
          "internalType": "uint256",
          "name": "tokenId",
          "type": "uint256"
        }
      ],
      "name": "getRoyalties",
      "outputs": [
        {
          "components": [
            {
              "internalType": "address payable",
              "name": "recipient",
              "type": "address"
            },
            {
              "internalType": "uint256",
              "name": "value",
              "type": "uint256"
            }
          ],
          "internalType": "struct GhostMarketERC721.Royalty[]",
          "name": "",
          "type": "tuple[]"
        }
      ],
      "stateMutability": "view",
      "type": "function"
    },
    {
      "inputs": [
        {
          "internalType": "uint256",
          "name": "tokenId",
          "type": "uint256"
        }
      ],
      "name": "getRoyaltiesBps",
      "outputs": [
        {
          "internalType": "uint256[]",
          "name": "",
          "type": "uint256[]"
        }
      ],
      "stateMutability": "view",
      "type": "function"
    },
    {
      "inputs": [
        {
          "internalType": "uint256",
          "name": "tokenId",
          "type": "uint256"
        }
      ],
      "name": "getRoyaltiesRecipients",
      "outputs": [
        {
          "internalType": "address payable[]",
          "name": "",
          "type": "address[]"
        }
      ],
      "stateMutability": "view",
      "type": "function"
    },
    {
      "inputs": [
        {
          "internalType": "bytes32",
          "name": "role",
          "type": "bytes32"
        },
        {
          "internalType": "address",
          "name": "account",
          "type": "address"
        }
      ],
      "name": "grantRole",
      "outputs": [],
      "stateMutability": "nonpayable",
      "type": "function"
    },
    {
      "inputs": [
        {
          "internalType": "bytes32",
          "name": "role",
          "type": "bytes32"
        },
        {
          "internalType": "address",
          "name": "account",
          "type": "address"
        }
      ],
      "name": "hasRole",
      "outputs": [
        {
          "internalType": "bool",
          "name": "",
          "type": "bool"
        }
      ],
      "stateMutability": "view",
      "type": "function"
    },
    {
      "inputs": [
        {
          "internalType": "string",
          "name": "name",
          "type": "string"
        },
        {
          "internalType": "string",
          "name": "symbol",
          "type": "string"
        },
        {
          "internalType": "string",
          "name": "uri",
          "type": "string"
        }
      ],
      "name": "initialize",
      "outputs": [],
      "stateMutability": "nonpayable",
      "type": "function"
    },
    {
      "inputs": [
        {
          "internalType": "address",
          "name": "owner",
          "type": "address"
        },
        {
          "internalType": "address",
          "name": "operator",
          "type": "address"
        }
      ],
      "name": "isApprovedForAll",
      "outputs": [
        {
          "internalType": "bool",
          "name": "",
          "type": "bool"
        }
      ],
      "stateMutability": "view",
      "type": "function"
    },
    {
      "inputs": [
        {
          "internalType": "address",
          "name": "to",
          "type": "address"
        },
        {
          "components": [
            {
              "internalType": "address payable",
              "name": "recipient",
              "type": "address"
            },
            {
              "internalType": "uint256",
              "name": "value",
              "type": "uint256"
            }
          ],
          "internalType": "struct GhostMarketERC721.Royalty[]",
          "name": "royalties",
          "type": "tuple[]"
        },
        {
          "internalType": "string",
          "name": "externalURI",
          "type": "string"
        },
        {
          "internalType": "string",
          "name": "metadata",
          "type": "string"
        },
        {
          "internalType": "string",
          "name": "lockedcontent",
          "type": "string"
        }
      ],
      "name": "mintGhost",
      "outputs": [],
      "stateMutability": "payable",
      "type": "function"
    },
    {
      "inputs": [
        {
          "internalType": "address",
          "name": "to",
          "type": "address"
        },
        {
          "internalType": "uint256",
          "name": "tokenId",
          "type": "uint256"
        },
        {
          "internalType": "string",
          "name": "uri",
          "type": "string"
        }
      ],
      "name": "mintWithURI",
      "outputs": [],
      "stateMutability": "nonpayable",
      "type": "function"
    },
    {
      "inputs": [],
      "name": "name",
      "outputs": [
        {
          "internalType": "string",
          "name": "",
          "type": "string"
        }
      ],
      "stateMutability": "view",
      "type": "function"
    },
    {
      "inputs": [],
      "name": "owner",
      "outputs": [
        {
          "internalType": "address",
          "name": "",
          "type": "address"
        }
      ],
      "stateMutability": "view",
      "type": "function"
    },
    {
      "inputs": [
        {
          "internalType": "uint256",
          "name": "tokenId",
          "type": "uint256"
        }
      ],
      "name": "ownerOf",
      "outputs": [
        {
          "internalType": "address",
          "name": "",
          "type": "address"
        }
      ],
      "stateMutability": "view",
      "type": "function"
    },
    {
      "inputs": [],
      "name": "pause",
      "outputs": [],
      "stateMutability": "nonpayable",
      "type": "function"
    },
    {
      "inputs": [],
      "name": "paused",
      "outputs": [
        {
          "internalType": "bool",
          "name": "",
          "type": "bool"
        }
      ],
      "stateMutability": "view",
      "type": "function"
    },
    {
      "inputs": [],
      "name": "renounceOwnership",
      "outputs": [],
      "stateMutability": "nonpayable",
      "type": "function"
    },
    {
      "inputs": [
        {
          "internalType": "bytes32",
          "name": "role",
          "type": "bytes32"
        },
        {
          "internalType": "address",
          "name": "account",
          "type": "address"
        }
      ],
      "name": "renounceRole",
      "outputs": [],
      "stateMutability": "nonpayable",
      "type": "function"
    },
    {
      "inputs": [
        {
          "internalType": "bytes32",
          "name": "role",
          "type": "bytes32"
        },
        {
          "internalType": "address",
          "name": "account",
          "type": "address"
        }
      ],
      "name": "revokeRole",
      "outputs": [],
      "stateMutability": "nonpayable",
      "type": "function"
    },
    {
      "inputs": [
        {
          "internalType": "address",
          "name": "from",
          "type": "address"
        },
        {
          "internalType": "address",
          "name": "to",
          "type": "address"
        },
        {
          "internalType": "uint256",
          "name": "tokenId",
          "type": "uint256"
        }
      ],
      "name": "safeTransferFrom",
      "outputs": [],
      "stateMutability": "nonpayable",
      "type": "function"
    },
    {
      "inputs": [
        {
          "internalType": "address",
          "name": "from",
          "type": "address"
        },
        {
          "internalType": "address",
          "name": "to",
          "type": "address"
        },
        {
          "internalType": "uint256",
          "name": "tokenId",
          "type": "uint256"
        },
        {
          "internalType": "bytes",
          "name": "_data",
          "type": "bytes"
        }
      ],
      "name": "safeTransferFrom",
      "outputs": [],
      "stateMutability": "nonpayable",
      "type": "function"
    },
    {
      "inputs": [
        {
          "internalType": "address",
          "name": "operator",
          "type": "address"
        },
        {
          "internalType": "bool",
          "name": "approved",
          "type": "bool"
        }
      ],
      "name": "setApprovalForAll",
      "outputs": [],
      "stateMutability": "nonpayable",
      "type": "function"
    },
    {
      "inputs": [
        {
          "internalType": "string",
          "name": "baseTokenURI",
          "type": "string"
        }
      ],
      "name": "setBaseTokenURI",
      "outputs": [],
      "stateMutability": "nonpayable",
      "type": "function"
    },
    {
      "inputs": [
        {
          "internalType": "uint256",
          "name": "gmmf",
          "type": "uint256"
        }
      ],
      "name": "setGhostmarketMintFee",
      "outputs": [],
      "stateMutability": "nonpayable",
      "type": "function"
    },
    {
      "inputs": [
        {
          "internalType": "bytes4",
          "name": "interfaceId",
          "type": "bytes4"
        }
      ],
      "name": "supportsInterface",
      "outputs": [
        {
          "internalType": "bool",
          "name": "",
          "type": "bool"
        }
      ],
      "stateMutability": "view",
      "type": "function"
    },
    {
      "inputs": [],
      "name": "symbol",
      "outputs": [
        {
          "internalType": "string",
          "name": "",
          "type": "string"
        }
      ],
      "stateMutability": "view",
      "type": "function"
    },
    {
      "inputs": [
        {
          "internalType": "uint256",
          "name": "index",
          "type": "uint256"
        }
      ],
      "name": "tokenByIndex",
      "outputs": [
        {
          "internalType": "uint256",
          "name": "",
          "type": "uint256"
        }
      ],
      "stateMutability": "view",
      "type": "function"
    },
    {
      "inputs": [
        {
          "internalType": "address",
          "name": "owner",
          "type": "address"
        },
        {
          "internalType": "uint256",
          "name": "index",
          "type": "uint256"
        }
      ],
      "name": "tokenOfOwnerByIndex",
      "outputs": [
        {
          "internalType": "uint256",
          "name": "",
          "type": "uint256"
        }
      ],
      "stateMutability": "view",
      "type": "function"
    },
    {
      "inputs": [
        {
          "internalType": "uint256",
          "name": "tokenId",
          "type": "uint256"
        }
      ],
      "name": "tokenURI",
      "outputs": [
        {
          "internalType": "string",
          "name": "",
          "type": "string"
        }
      ],
      "stateMutability": "view",
      "type": "function"
    },
    {
      "inputs": [],
      "name": "totalSupply",
      "outputs": [
        {
          "internalType": "uint256",
          "name": "",
          "type": "uint256"
        }
      ],
      "stateMutability": "view",
      "type": "function"
    },
    {
      "inputs": [
        {
          "internalType": "address",
          "name": "from",
          "type": "address"
        },
        {
          "internalType": "address",
          "name": "to",
          "type": "address"
        },
        {
          "internalType": "uint256",
          "name": "tokenId",
          "type": "uint256"
        }
      ],
      "name": "transferFrom",
      "outputs": [],
      "stateMutability": "nonpayable",
      "type": "function"
    },
    {
      "inputs": [
        {
          "internalType": "address",
          "name": "newOwner",
          "type": "address"
        }
      ],
      "name": "transferOwnership",
      "outputs": [],
      "stateMutability": "nonpayable",
      "type": "function"
    },
    {
      "inputs": [],
      "name": "unpause",
      "outputs": [],
      "stateMutability": "nonpayable",
      "type": "function"
    },
    {
      "inputs": [
        {
          "internalType": "uint256",
          "name": "withdrawAmount",
          "type": "uint256"
        }
      ],
      "name": "withdraw",
      "outputs": [],
      "stateMutability": "nonpayable",
      "type": "function"
    }
  ],
  "transactionHash": "0x6987a6913593339d57fed50e6478412eae63bbfbc8a3610ed2175c98d6757e41",
  "args": [],
  "solcInputHash": "09e45438c46c865335fb2498f11519e6",
  "bytecode": "0x608060405234801561001057600080fd5b50615002806100206000396000f3fe6080604052600436106103295760003560e01c80638456cb59116101a5578063c6f4f0f0116100ec578063e24dbeae11610095578063e985e9c51161006f578063e985e9c514610950578063edcbc0bd14610999578063f2fde38b146109c6578063f7d027de146109e657600080fd5b8063e24dbeae146108e6578063e4623c1b146108fc578063e63ab1e91461091c57600080fd5b8063d5391393116100c6578063d539139314610872578063d547741f146108a6578063dac0f3d9146108c657600080fd5b8063c6f4f0f014610804578063c87b56dd14610832578063ca15c8731461085257600080fd5b8063a217fddf1161014e578063b88d4fde11610128578063b88d4fde1461078a578063bb3bafd6146107aa578063c1793c58146107d757600080fd5b8063a217fddf14610735578063a22cb4651461074a578063a6487c531461076a57600080fd5b806391d148541161017f57806391d14854146106a657806395d89b41146106ec5780639ceea6651461070157600080fd5b80638456cb59146106525780638da5cb5b146106675780639010d07c1461068657600080fd5b80632fffbf26116102745780634a99950b1161021d5780636352211e116101f75780636352211e146105e857806370a0823114610608578063715018a61461062857806373448c461461063d57600080fd5b80634a99950b1461058f5780634f6ccce7146105af5780635c975abb146105cf57600080fd5b80633f4ba83a1161024e5780633f4ba83a1461053a57806342842e0e1461054f57806342966c681461056f57600080fd5b80632fffbf26146104e757806330176e13146104fa57806336568abe1461051a57600080fd5b80631c7e78f3116102d65780632e1a7d4d116102b05780632e1a7d4d146104875780632f2ff15d146104a75780632f745c59146104c757600080fd5b80631c7e78f31461041757806323b872dd14610437578063248a9ca31461045757600080fd5b8063095ea7b311610307578063095ea7b3146103bd5780630e094137146103df57806318160ddd1461040257600080fd5b806301ffc9a71461032e57806306fdde0314610363578063081812fc14610385575b600080fd5b34801561033a57600080fd5b5061034e6103493660046149d9565b610a06565b60405190151581526020015b60405180910390f35b34801561036f57600080fd5b50610378610a17565b60405161035a9190614dbf565b34801561039157600080fd5b506103a56103a036600461497c565b610aa9565b6040516001600160a01b03909116815260200161035a565b3480156103c957600080fd5b506103dd6103d8366004614867565b610b43565b005b3480156103eb57600080fd5b506103f4610c75565b60405190815260200161035a565b34801561040e57600080fd5b5060fd546103f4565b34801561042357600080fd5b506103dd61043236600461497c565b610cac565b34801561044357600080fd5b506103dd610452366004614633565b610d88565b34801561046357600080fd5b506103f461047236600461497c565b60009081526065602052604090206001015490565b34801561049357600080fd5b506103dd6104a236600461497c565b610e10565b3480156104b357600080fd5b506103dd6104c2366004614994565b611003565b3480156104d357600080fd5b506103f46104e2366004614867565b611025565b6103dd6104f53660046146f0565b6110cd565b34801561050657600080fd5b506103dd610515366004614a11565b611303565b34801561052657600080fd5b506103dd610535366004614994565b611398565b34801561054657600080fd5b506103dd6113ba565b34801561055b57600080fd5b506103dd61056a366004614633565b611462565b34801561057b57600080fd5b506103dd61058a36600461497c565b61147d565b34801561059b57600080fd5b506103dd6105aa366004614892565b611504565b3480156105bb57600080fd5b506103f46105ca36600461497c565b611619565b3480156105db57600080fd5b5061015f5460ff1661034e565b3480156105f457600080fd5b506103a561060336600461497c565b6116cb565b34801561061457600080fd5b506103f46106233660046145df565b611756565b34801561063457600080fd5b506103dd6117f0565b34801561064957600080fd5b506103f4611897565b34801561065e57600080fd5b506103dd6118a3565b34801561067357600080fd5b5061025b546001600160a01b03166103a5565b34801561069257600080fd5b506103a56106a13660046149b8565b611947565b3480156106b257600080fd5b5061034e6106c1366004614994565b60009182526065602090815260408084206001600160a01b0393909316845291905290205460ff1690565b3480156106f857600080fd5b50610378611966565b34801561070d57600080fd5b506103f47f8a9d57248f1015d5cac20111fe2512477434cf493627e5e959ca751e593d807981565b34801561074157600080fd5b506103f4600081565b34801561075657600080fd5b506103dd610765366004614836565b611975565b34801561077657600080fd5b506103dd610785366004614a44565b611a3a565b34801561079657600080fd5b506103dd6107a5366004614673565b611ba5565b3480156107b657600080fd5b506107ca6107c536600461497c565b611c2d565b60405161035a9190614d2f565b3480156107e357600080fd5b506107f76107f236600461497c565b611cb6565b60405161035a9190614d87565b34801561081057600080fd5b506103f461081f36600461497c565b60009081526102c1602052604090205490565b34801561083e57600080fd5b5061037861084d36600461497c565b611e03565b34801561085e57600080fd5b506103f461086d36600461497c565b611e0e565b34801561087e57600080fd5b506103f47f9f2df0fed2c77648de5860a4cc508cd0818c85b8b8a1ab4ceeef8d981c8956a681565b3480156108b257600080fd5b506103dd6108c1366004614994565b611e25565b3480156108d257600080fd5b506103dd6108e136600461497c565b611e2f565b3480156108f257600080fd5b506102c4546103f4565b34801561090857600080fd5b506103dd6109173660046148e9565b611ee8565b34801561092857600080fd5b506103f47f65d7a28e3265b37a6474929f336521b332c1681b933f6cb9f3376673440d862a81565b34801561095c57600080fd5b5061034e61096b3660046145fb565b6001600160a01b03918216600090815260ce6020908152604080832093909416825291909152205460ff1690565b3480156109a557600080fd5b506109b96109b436600461497c565b611f36565b60405161035a9190614ce2565b3480156109d257600080fd5b506103dd6109e13660046145df565b612088565b3480156109f257600080fd5b50610378610a0136600461497c565b6121bd565b6000610a1182612260565b92915050565b606060c98054610a2690614ef5565b80601f0160208091040260200160405190810160405280929190818152602001828054610a5290614ef5565b8015610a9f5780601f10610a7457610100808354040283529160200191610a9f565b820191906000526020600020905b815481529060010190602001808311610a8257829003601f168201915b5050505050905090565b600081815260cb60205260408120546001600160a01b0316610b275760405162461bcd60e51b815260206004820152602c60248201527f4552433732313a20617070726f76656420717565727920666f72206e6f6e657860448201526b34b9ba32b73a103a37b5b2b760a11b60648201526084015b60405180910390fd5b50600090815260cd60205260409020546001600160a01b031690565b6000610b4e826116cb565b9050806001600160a01b0316836001600160a01b03161415610bd85760405162461bcd60e51b815260206004820152602160248201527f4552433732313a20617070726f76616c20746f2063757272656e74206f776e6560448201527f72000000000000000000000000000000000000000000000000000000000000006064820152608401610b1e565b336001600160a01b0382161480610bf45750610bf4813361096b565b610c665760405162461bcd60e51b815260206004820152603860248201527f4552433732313a20617070726f76652063616c6c6572206973206e6f74206f7760448201527f6e6572206e6f7220617070726f76656420666f7220616c6c00000000000000006064820152608401610b1e565b610c708383612292565b505050565b6000610c816101f55490565b60011415610c9657506101f55490565b905090565b6001610ca26101f55490565b610c919190614e9b565b33610cb6826116cb565b6001600160a01b031614610d325760405162461bcd60e51b815260206004820152602360248201527f43616c6c6572206d75737420626520746865206f776e6572206f66207468652060448201527f4e465400000000000000000000000000000000000000000000000000000000006064820152608401610b1e565b610d3b81612300565b60008181526102c060205260409081902090517f544b1d1249133c50ce89743ed1ca34a815bd50d42b71e6d331a1ac560013a8ec91610d7d9133918591614c23565b60405180910390a150565b610d93335b8261232e565b610e055760405162461bcd60e51b815260206004820152603160248201527f4552433732313a207472616e736665722063616c6c6572206973206e6f74206f60448201527f776e6572206e6f7220617070726f7665640000000000000000000000000000006064820152608401610b1e565b610c70838383612425565b61025b546001600160a01b03163314610e6b5760405162461bcd60e51b815260206004820181905260248201527f4f776e61626c653a2063616c6c6572206973206e6f7420746865206f776e65726044820152606401610b1e565b600081118015610e7e57506102c3548111155b610f165760405162461bcd60e51b815260206004820152604760248201527f576974686472617720616d6f756e742073686f756c642062652067726561746560448201527f72207468656e203020616e64206c657373207468656e20636f6e74726163742060648201527f62616c616e636500000000000000000000000000000000000000000000000000608482015260a401610b1e565b806102c36000828254610f299190614e9b565b9091555050604051600090339083908381818185875af1925050503d8060008114610f70576040519150601f19603f3d011682016040523d82523d6000602084013e610f75565b606091505b5050905080610fc65760405162461bcd60e51b815260206004820152601060248201527f5472616e73666572206661696c65642e000000000000000000000000000000006044820152606401610b1e565b60408051338152602081018490527f3c897fa64265e543b9d36df079688f87240185d1bf1a937e4c45a56e11678736910160405180910390a15050565b61100d82826125fd565b6000828152609760205260409020610c709082612623565b600061103083611756565b82106110a45760405162461bcd60e51b815260206004820152602b60248201527f455243373231456e756d657261626c653a206f776e657220696e646578206f7560448201527f74206f6620626f756e64730000000000000000000000000000000000000000006064820152608401610b1e565b506001600160a01b0391909116600090815260fb60209081526040808320938352929052205490565b60026102295414156111215760405162461bcd60e51b815260206004820152601f60248201527f5265656e7472616e637947756172643a207265656e7472616e742063616c6c006044820152606401610b1e565b6002610229556001600160a01b03851661117d5760405162461bcd60e51b815260206004820152601160248201527f746f2063616e277420626520656d7074790000000000000000000000000000006044820152606401610b1e565b604080516000815260208101808352815190209161119d91869101614aea565b6040516020818303038152906040528051906020012014156112015760405162461bcd60e51b815260206004820152601a60248201527f65787465726e616c5552492063616e277420626520656d7074790000000000006044820152606401610b1e565b61120a85612638565b6000611214610c75565b85519091501561122857611228818661265a565b604080516000815260208101808352815190209161124891869101614aea565b604051602081830303815290604052805190602001201461126d5761126d818461293d565b604080516000815260208101808352815190209161128d91859101614aea565b60405160208183030381529060405280519060200120146112b2576112b2818361295d565b6112ba61297d565b7fe7cd4ce7f2a465edc730269a1305e8a48bad821e8fb7e152ec413829c01a53c48682866040516112ed93929190614bf2565b60405180910390a1505060016102295550505050565b61130e6000336106c1565b6113805760405162461bcd60e51b815260206004820152603460248201527f73657442617365546f6b656e5552493a206d75737420686176652041444d494e60448201527f20726f6c6520746f206368616e676520746869730000000000000000000000006064820152608401610b1e565b8051611394906101f6906020840190614499565b5050565b6113a28282612a1e565b6000828152609760205260409020610c709082612aa6565b6113e47f65d7a28e3265b37a6474929f336521b332c1681b933f6cb9f3376673440d862a336106c1565b611458576040805162461bcd60e51b81526020600482015260248101919091527f4552433732315072657365744d696e7465725061757365724175746f49643a2060448201527f6d75737420686176652070617573657220726f6c6520746f20756e70617573656064820152608401610b1e565b611460612abb565b565b610c7083838360405180602001604052806000815250611ba5565b61148633610d8d565b6114f85760405162461bcd60e51b815260206004820152603060248201527f4552433732314275726e61626c653a2063616c6c6572206973206e6f74206f7760448201527f6e6572206e6f7220617070726f766564000000000000000000000000000000006064820152608401610b1e565b61150181612b59565b50565b61152e7f8a9d57248f1015d5cac20111fe2512477434cf493627e5e959ca751e593d8079336106c1565b6115a05760405162461bcd60e51b815260206004820152603460248201527f6d696e74576974685552493a206d757374206861766520504f4c594e4554574f60448201527f524b5f524f4c4520726f6c6520746f206d696e740000000000000000000000006064820152608401610b1e565b600082815260cb60205260409020546001600160a01b0316156116055760405162461bcd60e51b815260206004820152601660248201527f746f6b656e20696420616c7265616479206578697374000000000000000000006044820152606401610b1e565b61160f8383612b62565b610c708282612b6c565b600061162460fd5490565b82106116985760405162461bcd60e51b815260206004820152602c60248201527f455243373231456e756d657261626c653a20676c6f62616c20696e646578206f60448201527f7574206f6620626f756e647300000000000000000000000000000000000000006064820152608401610b1e565b60fd82815481106116b957634e487b7160e01b600052603260045260246000fd5b90600052602060002001549050919050565b600081815260cb60205260408120546001600160a01b031680610a115760405162461bcd60e51b815260206004820152602960248201527f4552433732313a206f776e657220717565727920666f72206e6f6e657869737460448201527f656e7420746f6b656e00000000000000000000000000000000000000000000006064820152608401610b1e565b60006001600160a01b0382166117d45760405162461bcd60e51b815260206004820152602a60248201527f4552433732313a2062616c616e636520717565727920666f7220746865207a6560448201527f726f2061646472657373000000000000000000000000000000000000000000006064820152608401610b1e565b506001600160a01b0316600090815260cc602052604090205490565b61025b546001600160a01b0316331461184b5760405162461bcd60e51b815260206004820181905260248201527f4f776e61626c653a2063616c6c6572206973206e6f7420746865206f776e65726044820152606401610b1e565b61025b546040516000916001600160a01b0316907f8be0079c531659141344cd1fd0a4f28419497f9722a3daafe3b4186f6b6457e0908390a361025b80546001600160a01b0319169055565b6000610c916101f55490565b6118cd7f65d7a28e3265b37a6474929f336521b332c1681b933f6cb9f3376673440d862a336106c1565b61193f5760405162461bcd60e51b815260206004820152603e60248201527f4552433732315072657365744d696e7465725061757365724175746f49643a2060448201527f6d75737420686176652070617573657220726f6c6520746f20706175736500006064820152608401610b1e565b611460612b76565b600082815260976020526040812061195f9083612c00565b9392505050565b606060ca8054610a2690614ef5565b6001600160a01b0382163314156119ce5760405162461bcd60e51b815260206004820152601960248201527f4552433732313a20617070726f766520746f2063616c6c6572000000000000006044820152606401610b1e565b33600081815260ce602090815260408083206001600160a01b03871680855290835292819020805460ff191686151590811790915590519081529192917f17307eab39ab6107e8899845ad3d59bd9653f200f220920489ca2b5937696c31910160405180910390a35050565b600054610100900460ff1680611a53575060005460ff16155b611ab65760405162461bcd60e51b815260206004820152602e60248201527f496e697469616c697a61626c653a20636f6e747261637420697320616c72656160448201526d191e481a5b9a5d1a585b1a5e995960921b6064820152608401610b1e565b600054610100900460ff16158015611ad8576000805461ffff19166101011790555b611ae0612c0c565b611ae8612c0c565b611af0612c0c565b611af8612c0c565b611b00612c0c565b611b08612c0c565b611b10612cbe565b611b18612c0c565b611b20612c0c565b611b2a8484612d7b565b611b3382612e57565b611b3b612fb7565b611b647fee40ffc1ec8332b0837bd418921ada6378fb242be0d51d747626add0fc93894b6130ad565b611b8d7fe42093a63818e0c931c15fda9036d0d8995a638e7acfabc8355a4789766e8de96130ad565b8015611b9f576000805461ff00191690555b50505050565b611baf338361232e565b611c215760405162461bcd60e51b815260206004820152603160248201527f4552433732313a207472616e736665722063616c6c6572206973206e6f74206f60448201527f776e6572206e6f7220617070726f7665640000000000000000000000000000006064820152608401610b1e565b611b9f8484848461312d565b60606102bf6000838152602001908152602001600020805480602002602001604051908101604052809291908181526020016000905b82821015611cab576000848152602090819020604080518082019091526002850290910180546001600160a01b03168252600190810154828401529083529092019101611c63565b505050509050919050565b60008181526102bf60209081526040808320805482518185028101850190935280835260609493849084015b82821015611d2a576000848152602090819020604080518082019091526002850290910180546001600160a01b03168252600190810154828401529083529092019101611ce2565b5050505090506000815167ffffffffffffffff811115611d5a57634e487b7160e01b600052604160045260246000fd5b604051908082528060200260200182016040528015611d83578160200160208202803683370190505b50905060005b8251811015611dfb57828181518110611db257634e487b7160e01b600052603260045260246000fd5b602002602001015160200151828281518110611dde57634e487b7160e01b600052603260045260246000fd5b602090810291909101015280611df381614f30565b915050611d89565b509392505050565b6060610a11826131b6565b6000818152609760205260408120610a1190613335565b6113a2828261333f565b611e3a6000336106c1565b611eac5760405162461bcd60e51b815260206004820152602c60248201527f43616c6c6572206d75737420686176652061646d696e20726f6c6520746f207360448201527f6574206d696e74206665657300000000000000000000000000000000000000006064820152608401610b1e565b6102c481905560408051338152602081018390527f7801094d3234fa70b910ee2d953591f831bb371292f4f1d114a9111f2391c8129101610d7d565b60005b815181101561139457611f24828281518110611f1757634e487b7160e01b600052603260045260246000fd5b602002602001015161147d565b80611f2e81614f30565b915050611eeb565b60008181526102bf60209081526040808320805482518185028101850190935280835260609493849084015b82821015611faa576000848152602090819020604080518082019091526002850290910180546001600160a01b03168252600190810154828401529083529092019101611f62565b5050505090506000815167ffffffffffffffff811115611fda57634e487b7160e01b600052604160045260246000fd5b604051908082528060200260200182016040528015612003578160200160208202803683370190505b50905060005b8251811015611dfb5782818151811061203257634e487b7160e01b600052603260045260246000fd5b60200260200101516000015182828151811061205e57634e487b7160e01b600052603260045260246000fd5b6001600160a01b03909216602092830291909101909101528061208081614f30565b915050612009565b61025b546001600160a01b031633146120e35760405162461bcd60e51b815260206004820181905260248201527f4f776e61626c653a2063616c6c6572206973206e6f7420746865206f776e65726044820152606401610b1e565b6001600160a01b03811661215f5760405162461bcd60e51b815260206004820152602660248201527f4f776e61626c653a206e6577206f776e657220697320746865207a65726f206160448201527f64647265737300000000000000000000000000000000000000000000000000006064820152608401610b1e565b61025b546040516001600160a01b038084169216907f8be0079c531659141344cd1fd0a4f28419497f9722a3daafe3b4186f6b6457e090600090a361025b80546001600160a01b0319166001600160a01b0392909216919091179055565b60008181526102c2602052604090208054606091906121db90614ef5565b80601f016020809104026020016040519081016040528092919081815260200182805461220790614ef5565b80156122545780601f1061222957610100808354040283529160200191612254565b820191906000526020600020905b81548152906001019060200180831161223757829003601f168201915b50505050509050919050565b600061226b82613365565b80610a115750506001600160e01b031916600090815261028d602052604090205460ff1690565b600081815260cd6020526040902080546001600160a01b0319166001600160a01b03841690811790915581906122c7826116cb565b6001600160a01b03167f8c5be1e5ebec7d5bd14f71427d1e84f3dd0314c0f7b2291e5b200ac8c7c3b92560405160405180910390a45050565b60008181526102c1602052604090205461231b906001614e50565b60009182526102c1602052604090912055565b600081815260cb60205260408120546001600160a01b03166123a75760405162461bcd60e51b815260206004820152602c60248201527f4552433732313a206f70657261746f7220717565727920666f72206e6f6e657860448201526b34b9ba32b73a103a37b5b2b760a11b6064820152608401610b1e565b60006123b2836116cb565b9050806001600160a01b0316846001600160a01b031614806123ed5750836001600160a01b03166123e284610aa9565b6001600160a01b0316145b8061241d57506001600160a01b03808216600090815260ce602090815260408083209388168352929052205460ff165b949350505050565b826001600160a01b0316612438826116cb565b6001600160a01b0316146124b45760405162461bcd60e51b815260206004820152602960248201527f4552433732313a207472616e73666572206f6620746f6b656e2074686174206960448201527f73206e6f74206f776e00000000000000000000000000000000000000000000006064820152608401610b1e565b6001600160a01b03821661252f5760405162461bcd60e51b8152602060048201526024808201527f4552433732313a207472616e7366657220746f20746865207a65726f2061646460448201527f72657373000000000000000000000000000000000000000000000000000000006064820152608401610b1e565b61253a838383613370565b612545600082612292565b6001600160a01b038316600090815260cc6020526040812080546001929061256e908490614e9b565b90915550506001600160a01b038216600090815260cc6020526040812080546001929061259c908490614e50565b9091555050600081815260cb602052604080822080546001600160a01b0319166001600160a01b0386811691821790925591518493918716917fddf252ad1be2c89b69c2b068fc378daa952ba7f163c4a11628f55a4df523b3ef91a4505050565b600082815260656020526040902060010154612619813361337b565b610c7083836133fb565b600061195f836001600160a01b03841661349d565b61264b816126466101f55490565b6134ec565b6115016101f580546001019055565b600082815260cb60205260409020546001600160a01b03166126d35760405162461bcd60e51b815260206004820152602c60248201527f4552433732313a20617070726f76656420717565727920666f72206e6f6e657860448201526b34b9ba32b73a103a37b5b2b760a11b6064820152608401610b1e565b60005b8151811015610c705760006001600160a01b031682828151811061270a57634e487b7160e01b600052603260045260246000fd5b6020026020010151600001516001600160a01b0316141561276d5760405162461bcd60e51b815260206004820152601b60248201527f526563697069656e742073686f756c642062652070726573656e7400000000006044820152606401610b1e565b600082828151811061278f57634e487b7160e01b600052603260045260246000fd5b6020026020010151602001511161280e5760405162461bcd60e51b815260206004820152602260248201527f526f79616c746965732076616c75652073686f756c6420626520706f7369746960448201527f76650000000000000000000000000000000000000000000000000000000000006064820152608401610b1e565b61138882828151811061283157634e487b7160e01b600052603260045260246000fd5b60200260200101516020015111156128b15760405162461bcd60e51b815260206004820152602b60248201527f526f79616c746965732076616c75652073686f756c64206e6f74206265206d6f60448201527f7265207468616e203530250000000000000000000000000000000000000000006064820152608401610b1e565b60008381526102bf6020526040902082518390839081106128e257634e487b7160e01b600052603260045260246000fd5b602090810291909101810151825460018082018555600094855293839020825160029092020180546001600160a01b0319166001600160a01b039092169190911781559101519101558061293581614f30565b9150506126d6565b60008281526102c2602090815260409091208251610c7092840190614499565b60008281526102c0602090815260409091208251610c7092840190614499565b6102c454156129fe576102c45434146129fe5760405162461bcd60e51b815260206004820152603260248201527f57726f6e6720666565732076616c75652073656e7420746f2047686f73744d6160448201527f726b657420666f72206d696e74206665657300000000000000000000000000006064820152608401610b1e565b341561146057346102c36000828254612a179190614e50565b9091555050565b6001600160a01b0381163314612a9c5760405162461bcd60e51b815260206004820152602f60248201527f416363657373436f6e74726f6c3a2063616e206f6e6c792072656e6f756e636560448201527f20726f6c657320666f722073656c6600000000000000000000000000000000006064820152608401610b1e565b611394828261363a565b600061195f836001600160a01b0384166136bd565b61015f5460ff16612b0e5760405162461bcd60e51b815260206004820152601460248201527f5061757361626c653a206e6f74207061757365640000000000000000000000006044820152606401610b1e565b61015f805460ff191690557f5db9ee0a495bf2e6ff9c91a7834c1ba4fdd244a5e8aa4e537bd38aeae4b073aa335b6040516001600160a01b03909116815260200160405180910390a1565b611501816137d4565b6113948282613816565b6113948282613830565b61015f5460ff1615612bca5760405162461bcd60e51b815260206004820152601060248201527f5061757361626c653a20706175736564000000000000000000000000000000006044820152606401610b1e565b61015f805460ff191660011790557f62e78cea01bee320cd4e420270b5ea74000d11b0c9f74754ebdbfc544b05a258612b3c3390565b600061195f83836138da565b600054610100900460ff1680612c25575060005460ff16155b612c885760405162461bcd60e51b815260206004820152602e60248201527f496e697469616c697a61626c653a20636f6e747261637420697320616c72656160448201526d191e481a5b9a5d1a585b1a5e995960921b6064820152608401610b1e565b600054610100900460ff16158015612caa576000805461ffff19166101011790555b8015611501576000805461ff001916905550565b600054610100900460ff1680612cd7575060005460ff16155b612d3a5760405162461bcd60e51b815260206004820152602e60248201527f496e697469616c697a61626c653a20636f6e747261637420697320616c72656160448201526d191e481a5b9a5d1a585b1a5e995960921b6064820152608401610b1e565b600054610100900460ff16158015612d5c576000805461ffff19166101011790555b61015f805460ff191690558015611501576000805461ff001916905550565b600054610100900460ff1680612d94575060005460ff16155b612df75760405162461bcd60e51b815260206004820152602e60248201527f496e697469616c697a61626c653a20636f6e747261637420697320616c72656160448201526d191e481a5b9a5d1a585b1a5e995960921b6064820152608401610b1e565b600054610100900460ff16158015612e19576000805461ffff19166101011790555b8251612e2c9060c9906020860190614499565b508151612e409060ca906020850190614499565b508015610c70576000805461ff0019169055505050565b600054610100900460ff1680612e70575060005460ff16155b612ed35760405162461bcd60e51b815260206004820152602e60248201527f496e697469616c697a61626c653a20636f6e747261637420697320616c72656160448201526d191e481a5b9a5d1a585b1a5e995960921b6064820152608401610b1e565b600054610100900460ff16158015612ef5576000805461ffff19166101011790555b8151612f09906101f6906020850190614499565b50612f15600033613989565b612f3f7f9f2df0fed2c77648de5860a4cc508cd0818c85b8b8a1ab4ceeef8d981c8956a633613989565b612f697f65d7a28e3265b37a6474929f336521b332c1681b933f6cb9f3376673440d862a33613989565b612f937f8a9d57248f1015d5cac20111fe2512477434cf493627e5e959ca751e593d807933613989565b612fa26101f580546001019055565b8015611394576000805461ff00191690555050565b600054610100900460ff1680612fd0575060005460ff16155b6130335760405162461bcd60e51b815260206004820152602e60248201527f496e697469616c697a61626c653a20636f6e747261637420697320616c72656160448201526d191e481a5b9a5d1a585b1a5e995960921b6064820152608401610b1e565b600054610100900460ff16158015613055576000805461ffff19166101011790555b61025b80546001600160a01b0319163390811790915560405181906000907f8be0079c531659141344cd1fd0a4f28419497f9722a3daafe3b4186f6b6457e0908290a3508015611501576000805461ff001916905550565b6001600160e01b031980821614156131075760405162461bcd60e51b815260206004820152601c60248201527f4552433136353a20696e76616c696420696e74657266616365206964000000006044820152606401610b1e565b6001600160e01b031916600090815261028d60205260409020805460ff19166001179055565b613138848484612425565b61314484848484613993565b611b9f5760405162461bcd60e51b815260206004820152603260248201527f4552433732313a207472616e7366657220746f206e6f6e20455243373231526560448201527f63656976657220696d706c656d656e74657200000000000000000000000000006064820152608401610b1e565b600081815260cb60205260409020546060906001600160a01b03166132435760405162461bcd60e51b815260206004820152603160248201527f45524337323155524953746f726167653a2055524920717565727920666f722060448201527f6e6f6e6578697374656e7420746f6b656e0000000000000000000000000000006064820152608401610b1e565b60008281526101c360205260408120805461325d90614ef5565b80601f016020809104026020016040519081016040528092919081815260200182805461328990614ef5565b80156132d65780601f106132ab576101008083540402835291602001916132d6565b820191906000526020600020905b8154815290600101906020018083116132b957829003601f168201915b5050505050905060006132e7613af6565b90508051600014156132fa575092915050565b81511561332c578082604051602001613314929190614b06565b60405160208183030381529060405292505050919050565b61241d84613b06565b6000610a11825490565b60008281526065602052604090206001015461335b813361337b565b610c70838361363a565b6000610a1182613bee565b610c70838383613c2c565b60008281526065602090815260408083206001600160a01b038516845290915290205460ff16611394576133b9816001600160a01b03166014613cb1565b6133c4836020613cb1565b6040516020016133d5929190614b35565b60408051601f198184030181529082905262461bcd60e51b8252610b1e91600401614dbf565b60008281526065602090815260408083206001600160a01b038516845290915290205460ff166113945760008281526065602090815260408083206001600160a01b03851684529091529020805460ff191660011790556134593390565b6001600160a01b0316816001600160a01b0316837f2f8788117e7eff1d82e926ec794901d17c78024a50270940304540a733656f0d60405160405180910390a45050565b60008181526001830160205260408120546134e457508154600181810184556000848152602080822090930184905584548482528286019093526040902091909155610a11565b506000610a11565b6001600160a01b0382166135425760405162461bcd60e51b815260206004820181905260248201527f4552433732313a206d696e7420746f20746865207a65726f20616464726573736044820152606401610b1e565b600081815260cb60205260409020546001600160a01b0316156135a75760405162461bcd60e51b815260206004820152601c60248201527f4552433732313a20746f6b656e20616c7265616479206d696e746564000000006044820152606401610b1e565b6135b360008383613370565b6001600160a01b038216600090815260cc602052604081208054600192906135dc908490614e50565b9091555050600081815260cb602052604080822080546001600160a01b0319166001600160a01b03861690811790915590518392907fddf252ad1be2c89b69c2b068fc378daa952ba7f163c4a11628f55a4df523b3ef908290a45050565b60008281526065602090815260408083206001600160a01b038516845290915290205460ff16156113945760008281526065602090815260408083206001600160a01b0385168085529252808320805460ff1916905551339285917ff6391f5c32d9c69d2a47ea670b442974b53935d1edc7fd64eb21e047a839171b9190a45050565b600081815260018301602052604081205480156137ca5760006136e1600183614e9b565b85549091506000906136f590600190614e9b565b9050600086600001828154811061371c57634e487b7160e01b600052603260045260246000fd5b906000526020600020015490508087600001848154811061374d57634e487b7160e01b600052603260045260246000fd5b60009182526020808320909101929092558281526001890190915260409020849055865487908061378e57634e487b7160e01b600052603160045260246000fd5b60019003818190600052602060002001600090559055866001016000878152602001908152602001600020600090556001945050505050610a11565b6000915050610a11565b6137dd81613ebc565b60008181526101c36020526040902080546137f790614ef5565b1590506115015760008181526101c3602052604081206115019161451d565b611394828260405180602001604052806000815250613f63565b600082815260cb60205260409020546001600160a01b03166138ba5760405162461bcd60e51b815260206004820152602e60248201527f45524337323155524953746f726167653a2055524920736574206f66206e6f6e60448201527f6578697374656e7420746f6b656e0000000000000000000000000000000000006064820152608401610b1e565b60008281526101c3602090815260409091208251610c7092840190614499565b815460009082106139535760405162461bcd60e51b815260206004820152602260248201527f456e756d657261626c655365743a20696e646578206f7574206f6620626f756e60448201527f64730000000000000000000000000000000000000000000000000000000000006064820152608401610b1e565b82600001828154811061397657634e487b7160e01b600052603260045260246000fd5b9060005260206000200154905092915050565b61100d8282613fec565b60006001600160a01b0384163b15613aeb57604051630a85bd0160e11b81526001600160a01b0385169063150b7a02906139d7903390899088908890600401614bb6565b602060405180830381600087803b1580156139f157600080fd5b505af1925050508015613a21575060408051601f3d908101601f19168201909252613a1e918101906149f5565b60015b613ad1573d808015613a4f576040519150601f19603f3d011682016040523d82523d6000602084013e613a54565b606091505b508051613ac95760405162461bcd60e51b815260206004820152603260248201527f4552433732313a207472616e7366657220746f206e6f6e20455243373231526560448201527f63656976657220696d706c656d656e74657200000000000000000000000000006064820152608401610b1e565b805181602001fd5b6001600160e01b031916630a85bd0160e11b14905061241d565b506001949350505050565b60606101f68054610a2690614ef5565b600081815260cb60205260409020546060906001600160a01b0316613b935760405162461bcd60e51b815260206004820152602f60248201527f4552433732314d657461646174613a2055524920717565727920666f72206e6f60448201527f6e6578697374656e7420746f6b656e00000000000000000000000000000000006064820152608401610b1e565b6000613b9d613af6565b90506000815111613bbd576040518060200160405280600081525061195f565b80613bc784613ff6565b604051602001613bd8929190614b06565b6040516020818303038152906040529392505050565b60006001600160e01b031982167f780e9d63000000000000000000000000000000000000000000000000000000001480610a115750610a1182614110565b613c37838383614182565b61015f5460ff1615610c705760405162461bcd60e51b815260206004820152602b60248201527f4552433732315061757361626c653a20746f6b656e207472616e73666572207760448201527f68696c65207061757365640000000000000000000000000000000000000000006064820152608401610b1e565b60606000613cc0836002614e7c565b613ccb906002614e50565b67ffffffffffffffff811115613cf157634e487b7160e01b600052604160045260246000fd5b6040519080825280601f01601f191660200182016040528015613d1b576020820181803683370190505b509050600360fc1b81600081518110613d4457634e487b7160e01b600052603260045260246000fd5b60200101906001600160f81b031916908160001a9053507f780000000000000000000000000000000000000000000000000000000000000081600181518110613d9d57634e487b7160e01b600052603260045260246000fd5b60200101906001600160f81b031916908160001a9053506000613dc1846002614e7c565b613dcc906001614e50565b90505b6001811115613e6d577f303132333435363738396162636465660000000000000000000000000000000085600f1660108110613e1b57634e487b7160e01b600052603260045260246000fd5b1a60f81b828281518110613e3f57634e487b7160e01b600052603260045260246000fd5b60200101906001600160f81b031916908160001a90535060049490941c93613e6681614ede565b9050613dcf565b50831561195f5760405162461bcd60e51b815260206004820181905260248201527f537472696e67733a20686578206c656e67746820696e73756666696369656e746044820152606401610b1e565b6000613ec7826116cb565b9050613ed581600084613370565b613ee0600083612292565b6001600160a01b038116600090815260cc60205260408120805460019290613f09908490614e9b565b9091555050600082815260cb602052604080822080546001600160a01b0319169055518391906001600160a01b038416907fddf252ad1be2c89b69c2b068fc378daa952ba7f163c4a11628f55a4df523b3ef908390a45050565b613f6d83836134ec565b613f7a6000848484613993565b610c705760405162461bcd60e51b815260206004820152603260248201527f4552433732313a207472616e7366657220746f206e6f6e20455243373231526560448201527f63656976657220696d706c656d656e74657200000000000000000000000000006064820152608401610b1e565b61139482826133fb565b60608161401a5750506040805180820190915260018152600360fc1b602082015290565b8160005b8115614044578061402e81614f30565b915061403d9050600a83614e68565b915061401e565b60008167ffffffffffffffff81111561406d57634e487b7160e01b600052604160045260246000fd5b6040519080825280601f01601f191660200182016040528015614097576020820181803683370190505b5090505b841561241d576140ac600183614e9b565b91506140b9600a86614f4b565b6140c4906030614e50565b60f81b8183815181106140e757634e487b7160e01b600052603260045260246000fd5b60200101906001600160f81b031916908160001a905350614109600a86614e68565b945061409b565b60006001600160e01b031982167f80ac58cd00000000000000000000000000000000000000000000000000000000148061417357506001600160e01b031982167f5b5e139f00000000000000000000000000000000000000000000000000000000145b80610a115750610a118261423a565b6001600160a01b0383166141dd576141d88160fd8054600083815260fe60205260408120829055600182018355919091527f9346ac6dd7de6b96975fec380d4d994c4c12e6a8897544f22915316cc6cca2800155565b614200565b816001600160a01b0316836001600160a01b031614614200576142008382614278565b6001600160a01b03821661421757610c7081614315565b826001600160a01b0316826001600160a01b031614610c7057610c7082826143ee565b60006001600160e01b031982167f5a05180f000000000000000000000000000000000000000000000000000000001480610a115750610a1182614432565b6000600161428584611756565b61428f9190614e9b565b600083815260fc60205260409020549091508082146142e2576001600160a01b038416600090815260fb60209081526040808320858452825280832054848452818420819055835260fc90915290208190555b50600091825260fc602090815260408084208490556001600160a01b03909416835260fb81528383209183525290812055565b60fd5460009061432790600190614e9b565b600083815260fe602052604081205460fd805493945090928490811061435d57634e487b7160e01b600052603260045260246000fd5b906000526020600020015490508060fd838154811061438c57634e487b7160e01b600052603260045260246000fd5b600091825260208083209091019290925582815260fe909152604080822084905585825281205560fd8054806143d257634e487b7160e01b600052603160045260246000fd5b6001900381819060005260206000200160009055905550505050565b60006143f983611756565b6001600160a01b03909316600090815260fb60209081526040808320868452825280832085905593825260fc9052919091209190915550565b60006001600160e01b031982167f7965db0b000000000000000000000000000000000000000000000000000000001480610a1157507f01ffc9a7000000000000000000000000000000000000000000000000000000006001600160e01b0319831614610a11565b8280546144a590614ef5565b90600052602060002090601f0160209004810192826144c7576000855561450d565b82601f106144e057805160ff191683800117855561450d565b8280016001018555821561450d579182015b8281111561450d5782518255916020019190600101906144f2565b50614519929150614553565b5090565b50805461452990614ef5565b6000825580601f10614539575050565b601f01602090049060005260206000209081019061150191905b5b808211156145195760008155600101614554565b600067ffffffffffffffff83111561458257614582614f8b565b614595601f8401601f1916602001614dfb565b90508281528383830111156145a957600080fd5b828260208301376000602084830101529392505050565b600082601f8301126145d0578081fd5b61195f83833560208501614568565b6000602082840312156145f0578081fd5b813561195f81614fa1565b6000806040838503121561460d578081fd5b823561461881614fa1565b9150602083013561462881614fa1565b809150509250929050565b600080600060608486031215614647578081fd5b833561465281614fa1565b9250602084013561466281614fa1565b929592945050506040919091013590565b60008060008060808587031215614688578081fd5b843561469381614fa1565b935060208501356146a381614fa1565b925060408501359150606085013567ffffffffffffffff8111156146c5578182fd5b8501601f810187136146d5578182fd5b6146e487823560208401614568565b91505092959194509250565b600080600080600060a08688031215614707578081fd5b853561471281614fa1565b945060208681013567ffffffffffffffff8082111561472f578384fd5b818901915089601f830112614742578384fd5b813561475561475082614e2c565b614dfb565b8082825285820191508585018d878560061b8801011115614774578788fd5b8795505b838610156147c1576040818f03121561478f578788fd5b614797614dd2565b81356147a281614fa1565b8152818801358882015283526001959095019491860191604001614778565b509850505060408901359250808311156147d9578384fd5b6147e58a848b016145c0565b955060608901359250808311156147fa578384fd5b6148068a848b016145c0565b9450608089013592508083111561481b578384fd5b5050614829888289016145c0565b9150509295509295909350565b60008060408385031215614848578182fd5b823561485381614fa1565b915060208301358015158114614628578182fd5b60008060408385031215614879578182fd5b823561488481614fa1565b946020939093013593505050565b6000806000606084860312156148a6578081fd5b83356148b181614fa1565b925060208401359150604084013567ffffffffffffffff8111156148d3578182fd5b6148df868287016145c0565b9150509250925092565b600060208083850312156148fb578182fd5b823567ffffffffffffffff811115614911578283fd5b8301601f81018513614921578283fd5b803561492f61475082614e2c565b80828252848201915084840188868560051b870101111561494e578687fd5b8694505b83851015614970578035835260019490940193918501918501614952565b50979650505050505050565b60006020828403121561498d578081fd5b5035919050565b600080604083850312156149a6578182fd5b82359150602083013561462881614fa1565b600080604083850312156149ca578182fd5b50508035926020909101359150565b6000602082840312156149ea578081fd5b813561195f81614fb6565b600060208284031215614a06578081fd5b815161195f81614fb6565b600060208284031215614a22578081fd5b813567ffffffffffffffff811115614a38578182fd5b61241d848285016145c0565b600080600060608486031215614a58578081fd5b833567ffffffffffffffff80821115614a6f578283fd5b614a7b878388016145c0565b94506020860135915080821115614a90578283fd5b614a9c878388016145c0565b93506040860135915080821115614ab1578283fd5b506148df868287016145c0565b60008151808452614ad6816020860160208601614eb2565b601f01601f19169290920160200192915050565b60008251614afc818460208701614eb2565b9190910192915050565b60008351614b18818460208801614eb2565b835190830190614b2c818360208801614eb2565b01949350505050565b7f416363657373436f6e74726f6c3a206163636f756e7420000000000000000000815260008351614b6d816017850160208801614eb2565b7f206973206d697373696e6720726f6c65200000000000000000000000000000006017918401918201528351614baa816028840160208801614eb2565b01602801949350505050565b60006001600160a01b03808716835280861660208401525083604083015260806060830152614be86080830184614abe565b9695505050505050565b6001600160a01b0384168152826020820152606060408201526000614c1a6060830184614abe565b95945050505050565b6001600160a01b03841681526000602084818401526060604084015281845483600182811c915080831680614c5957607f831692505b858310811415614c7757634e487b7160e01b87526022600452602487fd5b6060880183905260808801818015614c965760018114614ca757614cd1565b60ff19861682528782019650614cd1565b60008b815260209020895b86811015614ccb57815484820152908501908901614cb2565b83019750505b50949b9a5050505050505050505050565b6020808252825182820181905260009190848201906040850190845b81811015614d235783516001600160a01b031683529284019291840191600101614cfe565b50909695505050505050565b602080825282518282018190526000919060409081850190868401855b82811015614d7a57815180516001600160a01b03168552860151868501529284019290850190600101614d4c565b5091979650505050505050565b6020808252825182820181905260009190848201906040850190845b81811015614d2357835183529284019291840191600101614da3565b60208152600061195f6020830184614abe565b6040805190810167ffffffffffffffff81118282101715614df557614df5614f8b565b60405290565b604051601f8201601f1916810167ffffffffffffffff81118282101715614e2457614e24614f8b565b604052919050565b600067ffffffffffffffff821115614e4657614e46614f8b565b5060051b60200190565b60008219821115614e6357614e63614f5f565b500190565b600082614e7757614e77614f75565b500490565b6000816000190483118215151615614e9657614e96614f5f565b500290565b600082821015614ead57614ead614f5f565b500390565b60005b83811015614ecd578181015183820152602001614eb5565b83811115611b9f5750506000910152565b600081614eed57614eed614f5f565b506000190190565b600181811c90821680614f0957607f821691505b60208210811415614f2a57634e487b7160e01b600052602260045260246000fd5b50919050565b6000600019821415614f4457614f44614f5f565b5060010190565b600082614f5a57614f5a614f75565b500690565b634e487b7160e01b600052601160045260246000fd5b634e487b7160e01b600052601260045260246000fd5b634e487b7160e01b600052604160045260246000fd5b6001600160a01b038116811461150157600080fd5b6001600160e01b03198116811461150157600080fdfea2646970667358221220f389c8693a4d556143b85b2141a57d7e4b671d7e1eb92b68b1a03a7221423c7464736f6c63430008040033",
  "devdoc": {
    "details": "ERC721 token with minting, burning, pause, royalties & lock content functions.",
    "kind": "dev",
    "methods": {
      "approve(address,uint256)": {
        "details": "See {IERC721-approve}."
      },
      "balanceOf(address)": {
        "details": "See {IERC721-balanceOf}."
      },
      "burn(uint256)": {
        "details": "Burns `tokenId`. See {ERC721-_burn}. Requirements: - The caller must own `tokenId` or be an approved operator."
      },
      "burnBatch(uint256[])": {
        "details": "bulk burn NFT"
      },
      "getApproved(uint256)": {
        "details": "See {IERC721-getApproved}."
      },
      "getCurrentLockedContentViewTracker(uint256)": {
        "details": "get a NFT current locked content view tracker"
      },
      "getGhostmarketMintFees()": {
        "returns": {
          "_0": "get Ghostmarket mint fees"
        }
      },
      "getLockedContent(uint256)": {
        "details": "get locked content for a NFT emits LockedContentViewed event"
      },
      "getMetadataJson(uint256)": {
        "details": "get a NFT custom attributes"
      },
      "getRoleAdmin(bytes32)": {
        "details": "Returns the admin role that controls `role`. See {grantRole} and {revokeRole}. To change a role's admin, use {_setRoleAdmin}."
      },
      "getRoleMember(bytes32,uint256)": {
        "details": "Returns one of the accounts that have `role`. `index` must be a value between 0 and {getRoleMemberCount}, non-inclusive. Role bearers are not sorted in any particular way, and their ordering may change at any point. WARNING: When using {getRoleMember} and {getRoleMemberCount}, make sure you perform all queries on the same block. See the following https://forum.openzeppelin.com/t/iterating-over-elements-on-enumerableset-in-openzeppelin-contracts/2296[forum post] for more information."
      },
      "getRoleMemberCount(bytes32)": {
        "details": "Returns the number of accounts that have `role`. Can be used together with {getRoleMember} to enumerate all bearers of a role."
      },
      "getRoyalties(uint256)": {
        "details": "get royalties array"
      },
      "getRoyaltiesBps(uint256)": {
        "details": "get a NFT royalties fees fee basis points 10000 = 100%"
      },
      "getRoyaltiesRecipients(uint256)": {
        "details": "get a NFT royalties recipients"
      },
      "grantRole(bytes32,address)": {
        "details": "Overload {grantRole} to track enumerable memberships"
      },
      "hasRole(bytes32,address)": {
        "details": "Returns `true` if `account` has been granted `role`."
      },
      "isApprovedForAll(address,address)": {
        "details": "See {IERC721-isApprovedForAll}."
      },
      "mintGhost(address,(address,uint256)[],string,string,string)": {
        "details": "mint NFT, set royalties, set metadata json, set lockedcontent emits Minted event"
      },
      "mintWithURI(address,uint256,string)": {
        "details": "polynetwork CrossChainNFTMapping"
      },
      "name()": {
        "details": "See {IERC721Metadata-name}."
      },
      "owner()": {
        "details": "Returns the address of the current owner."
      },
      "ownerOf(uint256)": {
        "details": "See {IERC721-ownerOf}."
      },
      "pause()": {
        "details": "Pauses all token transfers. See {ERC721Pausable} and {Pausable-_pause}. Requirements: - the caller must have the `PAUSER_ROLE`."
      },
      "paused()": {
        "details": "Returns true if the contract is paused, and false otherwise."
      },
      "renounceOwnership()": {
        "details": "Leaves the contract without owner. It will not be possible to call `onlyOwner` functions anymore. Can only be called by the current owner. NOTE: Renouncing ownership will leave the contract without an owner, thereby removing any functionality that is only available to the owner."
      },
      "renounceRole(bytes32,address)": {
        "details": "Overload {renounceRole} to track enumerable memberships"
      },
      "revokeRole(bytes32,address)": {
        "details": "Overload {revokeRole} to track enumerable memberships"
      },
      "safeTransferFrom(address,address,uint256)": {
        "details": "See {IERC721-safeTransferFrom}."
      },
      "safeTransferFrom(address,address,uint256,bytes)": {
        "details": "See {IERC721-safeTransferFrom}."
      },
      "setApprovalForAll(address,bool)": {
        "details": "See {IERC721-setApprovalForAll}."
      },
      "setGhostmarketMintFee(uint256)": {
        "details": "sets Ghostmarket mint fees as uint256 emits MintFeesUpdated event"
      },
      "supportsInterface(bytes4)": {
        "details": "See {IERC165-supportsInterface}."
      },
      "symbol()": {
        "details": "See {IERC721Metadata-symbol}."
      },
      "tokenByIndex(uint256)": {
        "details": "See {IERC721Enumerable-tokenByIndex}."
      },
      "tokenOfOwnerByIndex(address,uint256)": {
        "details": "See {IERC721Enumerable-tokenOfOwnerByIndex}."
      },
      "tokenURI(uint256)": {
        "details": "See {IERC721Metadata-tokenURI}."
      },
      "totalSupply()": {
        "details": "See {IERC721Enumerable-totalSupply}."
      },
      "transferFrom(address,address,uint256)": {
        "details": "See {IERC721-transferFrom}."
      },
      "transferOwnership(address)": {
        "details": "Transfers ownership of the contract to a new account (`newOwner`). Can only be called by the current owner."
      },
      "unpause()": {
        "details": "Unpauses all token transfers. See {ERC721Pausable} and {Pausable-_unpause}. Requirements: - the caller must have the `PAUSER_ROLE`."
      },
      "withdraw(uint256)": {
        "details": "withdraw contract balance emits MintFeesWithdrawn event"
      }
    },
    "version": 1
  },
  "userdoc": {
    "kind": "user",
    "methods": {},
    "version": 1
  },
  "storageLayout": {
    "storage": [
      {
        "astId": 753,
        "contract": "src/GhostmarketERC721.sol:GhostMarketERC721",
        "label": "_initialized",
        "offset": 0,
        "slot": "0",
        "type": "t_bool"
      },
      {
        "astId": 756,
        "contract": "src/GhostmarketERC721.sol:GhostMarketERC721",
        "label": "_initializing",
        "offset": 1,
        "slot": "0",
        "type": "t_bool"
      },
      {
        "astId": 4354,
        "contract": "src/GhostmarketERC721.sol:GhostMarketERC721",
        "label": "__gap",
        "offset": 0,
        "slot": "1",
        "type": "t_array(t_uint256)50_storage"
      },
      {
        "astId": 4740,
        "contract": "src/GhostmarketERC721.sol:GhostMarketERC721",
        "label": "__gap",
        "offset": 0,
        "slot": "51",
        "type": "t_array(t_uint256)50_storage"
      },
      {
        "astId": 307,
        "contract": "src/GhostmarketERC721.sol:GhostMarketERC721",
        "label": "_roles",
        "offset": 0,
        "slot": "101",
        "type": "t_mapping(t_bytes32,t_struct(RoleData)302_storage)"
      },
      {
        "astId": 615,
        "contract": "src/GhostmarketERC721.sol:GhostMarketERC721",
        "label": "__gap",
        "offset": 0,
        "slot": "102",
        "type": "t_array(t_uint256)49_storage"
      },
      {
        "astId": 62,
        "contract": "src/GhostmarketERC721.sol:GhostMarketERC721",
        "label": "_roleMembers",
        "offset": 0,
        "slot": "151",
        "type": "t_mapping(t_bytes32,t_struct(AddressSet)5039_storage)"
      },
      {
        "astId": 219,
        "contract": "src/GhostmarketERC721.sol:GhostMarketERC721",
        "label": "__gap",
        "offset": 0,
        "slot": "152",
        "type": "t_array(t_uint256)49_storage"
      },
      {
        "astId": 2407,
        "contract": "src/GhostmarketERC721.sol:GhostMarketERC721",
        "label": "_name",
        "offset": 0,
        "slot": "201",
        "type": "t_string_storage"
      },
      {
        "astId": 2409,
        "contract": "src/GhostmarketERC721.sol:GhostMarketERC721",
        "label": "_symbol",
        "offset": 0,
        "slot": "202",
        "type": "t_string_storage"
      },
      {
        "astId": 2413,
        "contract": "src/GhostmarketERC721.sol:GhostMarketERC721",
        "label": "_owners",
        "offset": 0,
        "slot": "203",
        "type": "t_mapping(t_uint256,t_address)"
      },
      {
        "astId": 2417,
        "contract": "src/GhostmarketERC721.sol:GhostMarketERC721",
        "label": "_balances",
        "offset": 0,
        "slot": "204",
        "type": "t_mapping(t_address,t_uint256)"
      },
      {
        "astId": 2421,
        "contract": "src/GhostmarketERC721.sol:GhostMarketERC721",
        "label": "_tokenApprovals",
        "offset": 0,
        "slot": "205",
        "type": "t_mapping(t_uint256,t_address)"
      },
      {
        "astId": 2427,
        "contract": "src/GhostmarketERC721.sol:GhostMarketERC721",
        "label": "_operatorApprovals",
        "offset": 0,
        "slot": "206",
        "type": "t_mapping(t_address,t_mapping(t_address,t_bool))"
      },
      {
        "astId": 3225,
        "contract": "src/GhostmarketERC721.sol:GhostMarketERC721",
        "label": "__gap",
        "offset": 0,
        "slot": "207",
        "type": "t_array(t_uint256)44_storage"
      },
      {
        "astId": 3457,
        "contract": "src/GhostmarketERC721.sol:GhostMarketERC721",
        "label": "_ownedTokens",
        "offset": 0,
        "slot": "251",
        "type": "t_mapping(t_address,t_mapping(t_uint256,t_uint256))"
      },
      {
        "astId": 3461,
        "contract": "src/GhostmarketERC721.sol:GhostMarketERC721",
        "label": "_ownedTokensIndex",
        "offset": 0,
        "slot": "252",
        "type": "t_mapping(t_uint256,t_uint256)"
      },
      {
        "astId": 3464,
        "contract": "src/GhostmarketERC721.sol:GhostMarketERC721",
        "label": "_allTokens",
        "offset": 0,
        "slot": "253",
        "type": "t_array(t_uint256)dyn_storage"
      },
      {
        "astId": 3468,
        "contract": "src/GhostmarketERC721.sol:GhostMarketERC721",
        "label": "_allTokensIndex",
        "offset": 0,
        "slot": "254",
        "type": "t_mapping(t_uint256,t_uint256)"
      },
      {
        "astId": 3783,
        "contract": "src/GhostmarketERC721.sol:GhostMarketERC721",
        "label": "__gap",
        "offset": 0,
        "slot": "255",
        "type": "t_array(t_uint256)46_storage"
      },
      {
        "astId": 3417,
        "contract": "src/GhostmarketERC721.sol:GhostMarketERC721",
        "label": "__gap",
        "offset": 0,
        "slot": "301",
        "type": "t_array(t_uint256)50_storage"
      },
      {
        "astId": 814,
        "contract": "src/GhostmarketERC721.sol:GhostMarketERC721",
        "label": "_paused",
        "offset": 0,
        "slot": "351",
        "type": "t_bool"
      },
      {
        "astId": 905,
        "contract": "src/GhostmarketERC721.sol:GhostMarketERC721",
        "label": "__gap",
        "offset": 0,
        "slot": "352",
        "type": "t_array(t_uint256)49_storage"
      },
      {
        "astId": 3851,
        "contract": "src/GhostmarketERC721.sol:GhostMarketERC721",
        "label": "__gap",
        "offset": 0,
        "slot": "401",
        "type": "t_array(t_uint256)50_storage"
      },
      {
        "astId": 3889,
        "contract": "src/GhostmarketERC721.sol:GhostMarketERC721",
        "label": "_tokenURIs",
        "offset": 0,
        "slot": "451",
        "type": "t_mapping(t_uint256,t_string_storage)"
      },
      {
        "astId": 4007,
        "contract": "src/GhostmarketERC721.sol:GhostMarketERC721",
        "label": "__gap",
        "offset": 0,
        "slot": "452",
        "type": "t_array(t_uint256)49_storage"
      },
      {
        "astId": 5624,
        "contract": "src/GhostmarketERC721.sol:GhostMarketERC721",
        "label": "_tokenIdTracker",
        "offset": 0,
        "slot": "501",
        "type": "t_struct(Counter)4361_storage"
      },
      {
        "astId": 5626,
        "contract": "src/GhostmarketERC721.sol:GhostMarketERC721",
        "label": "_baseTokenURI",
        "offset": 0,
        "slot": "502",
        "type": "t_string_storage"
      },
      {
        "astId": 5977,
        "contract": "src/GhostmarketERC721.sol:GhostMarketERC721",
        "label": "__gap",
        "offset": 0,
        "slot": "503",
        "type": "t_array(t_uint256)50_storage"
      },
      {
        "astId": 920,
        "contract": "src/GhostmarketERC721.sol:GhostMarketERC721",
        "label": "_status",
        "offset": 0,
        "slot": "553",
        "type": "t_uint256"
      },
      {
        "astId": 963,
        "contract": "src/GhostmarketERC721.sol:GhostMarketERC721",
        "label": "__gap",
        "offset": 0,
        "slot": "554",
        "type": "t_array(t_uint256)49_storage"
      },
      {
        "astId": 627,
        "contract": "src/GhostmarketERC721.sol:GhostMarketERC721",
        "label": "_owner",
        "offset": 0,
        "slot": "603",
        "type": "t_address"
      },
      {
        "astId": 746,
        "contract": "src/GhostmarketERC721.sol:GhostMarketERC721",
        "label": "__gap",
        "offset": 0,
        "slot": "604",
        "type": "t_array(t_uint256)49_storage"
      },
      {
        "astId": 4651,
        "contract": "src/GhostmarketERC721.sol:GhostMarketERC721",
        "label": "_supportedInterfaces",
        "offset": 0,
        "slot": "653",
        "type": "t_mapping(t_bytes4,t_bool)"
      },
      {
        "astId": 4694,
        "contract": "src/GhostmarketERC721.sol:GhostMarketERC721",
        "label": "__gap",
        "offset": 0,
        "slot": "654",
        "type": "t_array(t_uint256)49_storage"
      },
      {
        "astId": 6756,
        "contract": "src/GhostmarketERC721.sol:GhostMarketERC721",
        "label": "_royalties",
        "offset": 0,
        "slot": "703",
        "type": "t_mapping(t_uint256,t_array(t_struct(Royalty)6750_storage)dyn_storage)"
      },
      {
        "astId": 6760,
        "contract": "src/GhostmarketERC721.sol:GhostMarketERC721",
        "label": "_lockedContent",
        "offset": 0,
        "slot": "704",
        "type": "t_mapping(t_uint256,t_string_storage)"
      },
      {
        "astId": 6764,
        "contract": "src/GhostmarketERC721.sol:GhostMarketERC721",
        "label": "_lockedContentViewTracker",
        "offset": 0,
        "slot": "705",
        "type": "t_mapping(t_uint256,t_uint256)"
      },
      {
        "astId": 6768,
        "contract": "src/GhostmarketERC721.sol:GhostMarketERC721",
        "label": "_metadataJson",
        "offset": 0,
        "slot": "706",
        "type": "t_mapping(t_uint256,t_string_storage)"
      },
      {
        "astId": 6798,
        "contract": "src/GhostmarketERC721.sol:GhostMarketERC721",
        "label": "_payedMintFeesBalance",
        "offset": 0,
        "slot": "707",
        "type": "t_uint256"
      },
      {
        "astId": 6800,
        "contract": "src/GhostmarketERC721.sol:GhostMarketERC721",
        "label": "_ghostmarketMintFees",
        "offset": 0,
        "slot": "708",
        "type": "t_uint256"
      },
      {
        "astId": 7449,
        "contract": "src/GhostmarketERC721.sol:GhostMarketERC721",
        "label": "__gap",
        "offset": 0,
        "slot": "709",
        "type": "t_array(t_uint256)50_storage"
      }
    ],
    "types": {
      "t_address": {
        "encoding": "inplace",
        "label": "address",
        "numberOfBytes": "20"
      },
      "t_address_payable": {
        "encoding": "inplace",
        "label": "address payable",
        "numberOfBytes": "20"
      },
      "t_array(t_bytes32)dyn_storage": {
        "base": "t_bytes32",
        "encoding": "dynamic_array",
        "label": "bytes32[]",
        "numberOfBytes": "32"
      },
      "t_array(t_struct(Royalty)6750_storage)dyn_storage": {
        "base": "t_struct(Royalty)6750_storage",
        "encoding": "dynamic_array",
        "label": "struct GhostMarketERC721.Royalty[]",
        "numberOfBytes": "32"
      },
      "t_array(t_uint256)44_storage": {
        "base": "t_uint256",
        "encoding": "inplace",
        "label": "uint256[44]",
        "numberOfBytes": "1408"
      },
      "t_array(t_uint256)46_storage": {
        "base": "t_uint256",
        "encoding": "inplace",
        "label": "uint256[46]",
        "numberOfBytes": "1472"
      },
      "t_array(t_uint256)49_storage": {
        "base": "t_uint256",
        "encoding": "inplace",
        "label": "uint256[49]",
        "numberOfBytes": "1568"
      },
      "t_array(t_uint256)50_storage": {
        "base": "t_uint256",
        "encoding": "inplace",
        "label": "uint256[50]",
        "numberOfBytes": "1600"
      },
      "t_array(t_uint256)dyn_storage": {
        "base": "t_uint256",
        "encoding": "dynamic_array",
        "label": "uint256[]",
        "numberOfBytes": "32"
      },
      "t_bool": {
        "encoding": "inplace",
        "label": "bool",
        "numberOfBytes": "1"
      },
      "t_bytes32": {
        "encoding": "inplace",
        "label": "bytes32",
        "numberOfBytes": "32"
      },
      "t_bytes4": {
        "encoding": "inplace",
        "label": "bytes4",
        "numberOfBytes": "4"
      },
      "t_mapping(t_address,t_bool)": {
        "encoding": "mapping",
        "key": "t_address",
        "label": "mapping(address => bool)",
        "numberOfBytes": "32",
        "value": "t_bool"
      },
      "t_mapping(t_address,t_mapping(t_address,t_bool))": {
        "encoding": "mapping",
        "key": "t_address",
        "label": "mapping(address => mapping(address => bool))",
        "numberOfBytes": "32",
        "value": "t_mapping(t_address,t_bool)"
      },
      "t_mapping(t_address,t_mapping(t_uint256,t_uint256))": {
        "encoding": "mapping",
        "key": "t_address",
        "label": "mapping(address => mapping(uint256 => uint256))",
        "numberOfBytes": "32",
        "value": "t_mapping(t_uint256,t_uint256)"
      },
      "t_mapping(t_address,t_uint256)": {
        "encoding": "mapping",
        "key": "t_address",
        "label": "mapping(address => uint256)",
        "numberOfBytes": "32",
        "value": "t_uint256"
      },
      "t_mapping(t_bytes32,t_struct(AddressSet)5039_storage)": {
        "encoding": "mapping",
        "key": "t_bytes32",
        "label": "mapping(bytes32 => struct EnumerableSetUpgradeable.AddressSet)",
        "numberOfBytes": "32",
        "value": "t_struct(AddressSet)5039_storage"
      },
      "t_mapping(t_bytes32,t_struct(RoleData)302_storage)": {
        "encoding": "mapping",
        "key": "t_bytes32",
        "label": "mapping(bytes32 => struct AccessControlUpgradeable.RoleData)",
        "numberOfBytes": "32",
        "value": "t_struct(RoleData)302_storage"
      },
      "t_mapping(t_bytes32,t_uint256)": {
        "encoding": "mapping",
        "key": "t_bytes32",
        "label": "mapping(bytes32 => uint256)",
        "numberOfBytes": "32",
        "value": "t_uint256"
      },
      "t_mapping(t_bytes4,t_bool)": {
        "encoding": "mapping",
        "key": "t_bytes4",
        "label": "mapping(bytes4 => bool)",
        "numberOfBytes": "32",
        "value": "t_bool"
      },
      "t_mapping(t_uint256,t_address)": {
        "encoding": "mapping",
        "key": "t_uint256",
        "label": "mapping(uint256 => address)",
        "numberOfBytes": "32",
        "value": "t_address"
      },
      "t_mapping(t_uint256,t_array(t_struct(Royalty)6750_storage)dyn_storage)": {
        "encoding": "mapping",
        "key": "t_uint256",
        "label": "mapping(uint256 => struct GhostMarketERC721.Royalty[])",
        "numberOfBytes": "32",
        "value": "t_array(t_struct(Royalty)6750_storage)dyn_storage"
      },
      "t_mapping(t_uint256,t_string_storage)": {
        "encoding": "mapping",
        "key": "t_uint256",
        "label": "mapping(uint256 => string)",
        "numberOfBytes": "32",
        "value": "t_string_storage"
      },
      "t_mapping(t_uint256,t_uint256)": {
        "encoding": "mapping",
        "key": "t_uint256",
        "label": "mapping(uint256 => uint256)",
        "numberOfBytes": "32",
        "value": "t_uint256"
      },
      "t_string_storage": {
        "encoding": "bytes",
        "label": "string",
        "numberOfBytes": "32"
      },
      "t_struct(AddressSet)5039_storage": {
        "encoding": "inplace",
        "label": "struct EnumerableSetUpgradeable.AddressSet",
        "members": [
          {
            "astId": 5038,
            "contract": "src/GhostmarketERC721.sol:GhostMarketERC721",
            "label": "_inner",
            "offset": 0,
            "slot": "0",
            "type": "t_struct(Set)4764_storage"
          }
        ],
        "numberOfBytes": "64"
      },
      "t_struct(Counter)4361_storage": {
        "encoding": "inplace",
        "label": "struct CountersUpgradeable.Counter",
        "members": [
          {
            "astId": 4360,
            "contract": "src/GhostmarketERC721.sol:GhostMarketERC721",
            "label": "_value",
            "offset": 0,
            "slot": "0",
            "type": "t_uint256"
          }
        ],
        "numberOfBytes": "32"
      },
      "t_struct(RoleData)302_storage": {
        "encoding": "inplace",
        "label": "struct AccessControlUpgradeable.RoleData",
        "members": [
          {
            "astId": 299,
            "contract": "src/GhostmarketERC721.sol:GhostMarketERC721",
            "label": "members",
            "offset": 0,
            "slot": "0",
            "type": "t_mapping(t_address,t_bool)"
          },
          {
            "astId": 301,
            "contract": "src/GhostmarketERC721.sol:GhostMarketERC721",
            "label": "adminRole",
            "offset": 0,
            "slot": "1",
            "type": "t_bytes32"
          }
        ],
        "numberOfBytes": "64"
      },
      "t_struct(Royalty)6750_storage": {
        "encoding": "inplace",
        "label": "struct GhostMarketERC721.Royalty",
        "members": [
          {
            "astId": 6747,
            "contract": "src/GhostmarketERC721.sol:GhostMarketERC721",
            "label": "recipient",
            "offset": 0,
            "slot": "0",
            "type": "t_address_payable"
          },
          {
            "astId": 6749,
            "contract": "src/GhostmarketERC721.sol:GhostMarketERC721",
            "label": "value",
            "offset": 0,
            "slot": "1",
            "type": "t_uint256"
          }
        ],
        "numberOfBytes": "64"
      },
      "t_struct(Set)4764_storage": {
        "encoding": "inplace",
        "label": "struct EnumerableSetUpgradeable.Set",
        "members": [
          {
            "astId": 4759,
            "contract": "src/GhostmarketERC721.sol:GhostMarketERC721",
            "label": "_values",
            "offset": 0,
            "slot": "0",
            "type": "t_array(t_bytes32)dyn_storage"
          },
          {
            "astId": 4763,
            "contract": "src/GhostmarketERC721.sol:GhostMarketERC721",
            "label": "_indexes",
            "offset": 0,
            "slot": "1",
            "type": "t_mapping(t_bytes32,t_uint256)"
          }
        ],
        "numberOfBytes": "64"
      },
      "t_uint256": {
        "encoding": "inplace",
        "label": "uint256",
        "numberOfBytes": "32"
      }
    }
  }
}